{
  "abi": [
    {
      "type": "constructor",
      "inputs": [],
      "stateMutability": "nonpayable"
    },
    {
      "type": "function",
      "name": "approve",
      "inputs": [
        {
          "name": "to",
          "type": "address",
          "internalType": "address"
        },
        {
          "name": "tokenId",
          "type": "uint256",
          "internalType": "uint256"
        }
      ],
      "outputs": [],
      "stateMutability": "nonpayable"
    },
    {
      "type": "function",
      "name": "balanceOf",
      "inputs": [
        {
          "name": "owner",
          "type": "address",
          "internalType": "address"
        }
      ],
      "outputs": [
        {
          "name": "",
          "type": "uint256",
          "internalType": "uint256"
        }
      ],
      "stateMutability": "view"
    },
    {
      "type": "function",
      "name": "getAllTokens",
      "inputs": [],
      "outputs": [
        {
          "name": "",
          "type": "uint256[]",
          "internalType": "uint256[]"
        }
      ],
      "stateMutability": "view"
    },
    {
      "type": "function",
      "name": "getApproved",
      "inputs": [
        {
          "name": "tokenId",
          "type": "uint256",
          "internalType": "uint256"
        }
      ],
      "outputs": [
        {
          "name": "",
          "type": "address",
          "internalType": "address"
        }
      ],
      "stateMutability": "view"
    },
    {
      "type": "function",
      "name": "getNFT",
      "inputs": [
        {
          "name": "tokenId",
          "type": "uint256",
          "internalType": "uint256"
        }
      ],
      "outputs": [
        {
          "name": "",
          "type": "tuple",
          "internalType": "struct NFTMarketplace.NFT",
          "components": [
            {
              "name": "tokenId",
              "type": "uint256",
              "internalType": "uint256"
            },
            {
              "name": "creator",
              "type": "address",
              "internalType": "address payable"
            },
            {
              "name": "price",
              "type": "uint256",
              "internalType": "uint256"
            },
            {
              "name": "isForSale",
              "type": "bool",
              "internalType": "bool"
            }
          ]
        }
      ],
      "stateMutability": "view"
    },
    {
      "type": "function",
      "name": "isApprovedForAll",
      "inputs": [
        {
          "name": "owner",
          "type": "address",
          "internalType": "address"
        },
        {
          "name": "operator",
          "type": "address",
          "internalType": "address"
        }
      ],
      "outputs": [
        {
          "name": "",
          "type": "bool",
          "internalType": "bool"
        }
      ],
      "stateMutability": "view"
    },
    {
      "type": "function",
      "name": "mintNFT",
      "inputs": [
        {
          "name": "tokenURI",
          "type": "string",
          "internalType": "string"
        },
        {
          "name": "price",
          "type": "uint256",
          "internalType": "uint256"
        }
      ],
      "outputs": [
        {
          "name": "",
          "type": "uint256",
          "internalType": "uint256"
        }
      ],
      "stateMutability": "nonpayable"
    },
    {
      "type": "function",
      "name": "name",
      "inputs": [],
      "outputs": [
        {
          "name": "",
          "type": "string",
          "internalType": "string"
        }
      ],
      "stateMutability": "view"
    },
    {
      "type": "function",
      "name": "owner",
      "inputs": [],
      "outputs": [
        {
          "name": "",
          "type": "address",
          "internalType": "address"
        }
      ],
      "stateMutability": "view"
    },
    {
      "type": "function",
      "name": "ownerOf",
      "inputs": [
        {
          "name": "tokenId",
          "type": "uint256",
          "internalType": "uint256"
        }
      ],
      "outputs": [
        {
          "name": "",
          "type": "address",
          "internalType": "address"
        }
      ],
      "stateMutability": "view"
    },
    {
      "type": "function",
      "name": "renounceOwnership",
      "inputs": [],
      "outputs": [],
      "stateMutability": "nonpayable"
    },
    {
      "type": "function",
      "name": "safeTransferFrom",
      "inputs": [
        {
          "name": "from",
          "type": "address",
          "internalType": "address"
        },
        {
          "name": "to",
          "type": "address",
          "internalType": "address"
        },
        {
          "name": "tokenId",
          "type": "uint256",
          "internalType": "uint256"
        }
      ],
      "outputs": [],
      "stateMutability": "nonpayable"
    },
    {
      "type": "function",
      "name": "safeTransferFrom",
      "inputs": [
        {
          "name": "from",
          "type": "address",
          "internalType": "address"
        },
        {
          "name": "to",
          "type": "address",
          "internalType": "address"
        },
        {
          "name": "tokenId",
          "type": "uint256",
          "internalType": "uint256"
        },
        {
          "name": "data",
          "type": "bytes",
          "internalType": "bytes"
        }
      ],
      "outputs": [],
      "stateMutability": "nonpayable"
    },
    {
      "type": "function",
      "name": "setApprovalForAll",
      "inputs": [
        {
          "name": "operator",
          "type": "address",
          "internalType": "address"
        },
        {
          "name": "approved",
          "type": "bool",
          "internalType": "bool"
        }
      ],
      "outputs": [],
      "stateMutability": "nonpayable"
    },
    {
      "type": "function",
      "name": "supportsInterface",
      "inputs": [
        {
          "name": "interfaceId",
          "type": "bytes4",
          "internalType": "bytes4"
        }
      ],
      "outputs": [
        {
          "name": "",
          "type": "bool",
          "internalType": "bool"
        }
      ],
      "stateMutability": "view"
    },
    {
      "type": "function",
      "name": "symbol",
      "inputs": [],
      "outputs": [
        {
          "name": "",
          "type": "string",
          "internalType": "string"
        }
      ],
      "stateMutability": "view"
    },
    {
      "type": "function",
      "name": "tokenURI",
      "inputs": [
        {
          "name": "tokenId",
          "type": "uint256",
          "internalType": "uint256"
        }
      ],
      "outputs": [
        {
          "name": "",
          "type": "string",
          "internalType": "string"
        }
      ],
      "stateMutability": "view"
    },
    {
      "type": "function",
      "name": "transferFrom",
      "inputs": [
        {
          "name": "from",
          "type": "address",
          "internalType": "address"
        },
        {
          "name": "to",
          "type": "address",
          "internalType": "address"
        },
        {
          "name": "tokenId",
          "type": "uint256",
          "internalType": "uint256"
        }
      ],
      "outputs": [],
      "stateMutability": "nonpayable"
    },
    {
      "type": "function",
      "name": "transferOwnership",
      "inputs": [
        {
          "name": "newOwner",
          "type": "address",
          "internalType": "address"
        }
      ],
      "outputs": [],
      "stateMutability": "nonpayable"
    },
    {
      "type": "event",
      "name": "Approval",
      "inputs": [
        {
          "name": "owner",
          "type": "address",
          "indexed": true,
          "internalType": "address"
        },
        {
          "name": "approved",
          "type": "address",
          "indexed": true,
          "internalType": "address"
        },
        {
          "name": "tokenId",
          "type": "uint256",
          "indexed": true,
          "internalType": "uint256"
        }
      ],
      "anonymous": false
    },
    {
      "type": "event",
      "name": "ApprovalForAll",
      "inputs": [
        {
          "name": "owner",
          "type": "address",
          "indexed": true,
          "internalType": "address"
        },
        {
          "name": "operator",
          "type": "address",
          "indexed": true,
          "internalType": "address"
        },
        {
          "name": "approved",
          "type": "bool",
          "indexed": false,
          "internalType": "bool"
        }
      ],
      "anonymous": false
    },
    {
      "type": "event",
      "name": "BatchMetadataUpdate",
      "inputs": [
        {
          "name": "_fromTokenId",
          "type": "uint256",
          "indexed": false,
          "internalType": "uint256"
        },
        {
          "name": "_toTokenId",
          "type": "uint256",
          "indexed": false,
          "internalType": "uint256"
        }
      ],
      "anonymous": false
    },
    {
      "type": "event",
      "name": "MetadataUpdate",
      "inputs": [
        {
          "name": "_tokenId",
          "type": "uint256",
          "indexed": false,
          "internalType": "uint256"
        }
      ],
      "anonymous": false
    },
    {
      "type": "event",
      "name": "NFTListed",
      "inputs": [
        {
          "name": "tokenId",
          "type": "uint256",
          "indexed": true,
          "internalType": "uint256"
        },
        {
          "name": "price",
          "type": "uint256",
          "indexed": false,
          "internalType": "uint256"
        }
      ],
      "anonymous": false
    },
    {
      "type": "event",
      "name": "NFTMinted",
      "inputs": [
        {
          "name": "tokenId",
          "type": "uint256",
          "indexed": true,
          "internalType": "uint256"
        },
        {
          "name": "creator",
          "type": "address",
          "indexed": true,
          "internalType": "address"
        },
        {
          "name": "tokenURI",
          "type": "string",
          "indexed": false,
          "internalType": "string"
        },
        {
          "name": "price",
          "type": "uint256",
          "indexed": false,
          "internalType": "uint256"
        }
      ],
      "anonymous": false
    },
    {
      "type": "event",
      "name": "OwnershipTransferred",
      "inputs": [
        {
          "name": "previousOwner",
          "type": "address",
          "indexed": true,
          "internalType": "address"
        },
        {
          "name": "newOwner",
          "type": "address",
          "indexed": true,
          "internalType": "address"
        }
      ],
      "anonymous": false
    },
    {
      "type": "event",
      "name": "Transfer",
      "inputs": [
        {
          "name": "from",
          "type": "address",
          "indexed": true,
          "internalType": "address"
        },
        {
          "name": "to",
          "type": "address",
          "indexed": true,
          "internalType": "address"
        },
        {
          "name": "tokenId",
          "type": "uint256",
          "indexed": true,
          "internalType": "uint256"
        }
      ],
      "anonymous": false
    },
    {
      "type": "error",
      "name": "ERC721IncorrectOwner",
      "inputs": [
        {
          "name": "sender",
          "type": "address",
          "internalType": "address"
        },
        {
          "name": "tokenId",
          "type": "uint256",
          "internalType": "uint256"
        },
        {
          "name": "owner",
          "type": "address",
          "internalType": "address"
        }
      ]
    },
    {
      "type": "error",
      "name": "ERC721InsufficientApproval",
      "inputs": [
        {
          "name": "operator",
          "type": "address",
          "internalType": "address"
        },
        {
          "name": "tokenId",
          "type": "uint256",
          "internalType": "uint256"
        }
      ]
    },
    {
      "type": "error",
      "name": "ERC721InvalidApprover",
      "inputs": [
        {
          "name": "approver",
          "type": "address",
          "internalType": "address"
        }
      ]
    },
    {
      "type": "error",
      "name": "ERC721InvalidOperator",
      "inputs": [
        {
          "name": "operator",
          "type": "address",
          "internalType": "address"
        }
      ]
    },
    {
      "type": "error",
      "name": "ERC721InvalidOwner",
      "inputs": [
        {
          "name": "owner",
          "type": "address",
          "internalType": "address"
        }
      ]
    },
    {
      "type": "error",
      "name": "ERC721InvalidReceiver",
      "inputs": [
        {
          "name": "receiver",
          "type": "address",
          "internalType": "address"
        }
      ]
    },
    {
      "type": "error",
      "name": "ERC721InvalidSender",
      "inputs": [
        {
          "name": "sender",
          "type": "address",
          "internalType": "address"
        }
      ]
    },
    {
      "type": "error",
      "name": "ERC721NonexistentToken",
      "inputs": [
        {
          "name": "tokenId",
          "type": "uint256",
          "internalType": "uint256"
        }
      ]
    },
    {
      "type": "error",
      "name": "OwnableInvalidOwner",
      "inputs": [
        {
          "name": "owner",
          "type": "address",
          "internalType": "address"
        }
      ]
    },
    {
      "type": "error",
      "name": "OwnableUnauthorizedAccount",
      "inputs": [
        {
          "name": "account",
          "type": "address",
          "internalType": "address"
        }
      ]
    }
  ],
  "bytecode": {
    "object": "0x608060405260006008553480156200001657600080fd5b50336040518060400160405280600e81526020016d4e46544d61726b6574706c61636560901b815250604051806040016040528060048152602001634e46544d60e01b81525081600090816200006d9190620001b9565b5060016200007c8282620001b9565b5050506001600160a01b038116620000ae57604051631e4fbdf760e01b81526000600482015260240160405180910390fd5b620000b981620000c0565b5062000285565b600780546001600160a01b038381166001600160a01b0319831681179093556040519116919082907f8be0079c531659141344cd1fd0a4f28419497f9722a3daafe3b4186f6b6457e090600090a35050565b634e487b7160e01b600052604160045260246000fd5b600181811c908216806200013d57607f821691505b6020821081036200015e57634e487b7160e01b600052602260045260246000fd5b50919050565b601f821115620001b4576000816000526020600020601f850160051c810160208610156200018f5750805b601f850160051c820191505b81811015620001b0578281556001016200019b565b5050505b505050565b81516001600160401b03811115620001d557620001d562000112565b620001ed81620001e6845462000128565b8462000164565b602080601f8311600181146200022557600084156200020c5750858301515b600019600386901b1c1916600185901b178555620001b0565b600085815260208120601f198616915b82811015620002565788860151825594840194600190910190840162000235565b5085821015620002755787850151600019600388901b60f8161c191681555b5050505050600190811b01905550565b6116c480620002956000396000f3fe608060405234801561001057600080fd5b50600436106101215760003560e01c80636352211e116100ad578063a22cb46511610071578063a22cb46514610303578063b88d4fde14610316578063c87b56dd14610329578063e985e9c51461033c578063f2fde38b1461034f57600080fd5b80636352211e146102bc57806370a08231146102cf578063715018a6146102e25780638da5cb5b146102ea57806395d89b41146102fb57600080fd5b806323b872dd116100f457806323b872dd146101a35780632a5c792a146101b657806342842e0e146101cb578063576f7ea7146101de5780635afa3a721461029b57600080fd5b806301ffc9a71461012657806306fdde031461014e578063081812fc14610163578063095ea7b31461018e575b600080fd5b610139610134366004611128565b610362565b60405190151581526020015b60405180910390f35b61015661038d565b6040516101459190611195565b6101766101713660046111a8565b61041f565b6040516001600160a01b039091168152602001610145565b6101a161019c3660046111dd565b610448565b005b6101a16101b1366004611207565b610457565b6101be6104e7565b6040516101459190611243565b6101a16101d9366004611207565b61053e565b61025d6101ec3660046111a8565b6040805160808082018352600080835260208084018290528385018290526060938401829052948152600a8552839020835191820184528054825260018101546001600160a01b03169482019490945260028401549281019290925260039092015460ff1615159181019190915290565b6040516101459190815181526020808301516001600160a01b0316908201526040808301519082015260609182015115159181019190915260800190565b6102ae6102a9366004611313565b61055e565b604051908152602001610145565b6101766102ca3660046111a8565b6106c5565b6102ae6102dd36600461136c565b6106d0565b6101a1610718565b6007546001600160a01b0316610176565b61015661072c565b6101a1610311366004611387565b61073b565b6101a16103243660046113c3565b610746565b6101566103373660046111a8565b61075d565b61013961034a36600461143f565b61086e565b6101a161035d36600461136c565b61089c565b60006001600160e01b03198216632483248360e11b14806103875750610387826108da565b92915050565b60606000805461039c90611472565b80601f01602080910402602001604051908101604052809291908181526020018280546103c890611472565b80156104155780601f106103ea57610100808354040283529160200191610415565b820191906000526020600020905b8154815290600101906020018083116103f857829003601f168201915b5050505050905090565b600061042a8261092a565b506000828152600460205260409020546001600160a01b0316610387565b610453828233610963565b5050565b6001600160a01b03821661048657604051633250574960e11b8152600060048201526024015b60405180910390fd5b6000610493838333610970565b9050836001600160a01b0316816001600160a01b0316146104e1576040516364283d7b60e01b81526001600160a01b038086166004830152602482018490528216604482015260640161047d565b50505050565b6060600980548060200260200160405190810160405280929190818152602001828054801561041557602002820191906000526020600020905b815481526020019060010190808311610521575050505050905090565b61055983838360405180602001604052806000815250610746565b505050565b60008082116105af5760405162461bcd60e51b815260206004820152601f60248201527f5072696365206d7573742062652067726561746572207468616e207a65726f00604482015260640161047d565b600880549060006105bf836114ac565b90915550506008546105d13382610a69565b6105db8185610ace565b604080516080810182528281523360208083018281528385018881526001606086018181526000898152600a90955287852096518755925186820180546001600160a01b0319166001600160a01b039092169190911790559051600286015590516003909401805460ff19169415159490941790935560098054938401815590527f6e1540171b6c0c960b71a7020d9f60077f6af931a8bbf590da0223dacf75c7af909101839055905182907f23eae53a2b33c20fc1b74912840a6a2a72adc26effa68729f81e756c875df289906106b690889088906114d3565b60405180910390a39392505050565b60006103878261092a565b60006001600160a01b0382166106fc576040516322718ad960e21b81526000600482015260240161047d565b506001600160a01b031660009081526003602052604090205490565b610720610b1e565b61072a6000610b4b565b565b60606001805461039c90611472565b610453338383610b9d565b610751848484610457565b6104e184848484610c3c565b60606107688261092a565b506000828152600660205260408120805461078290611472565b80601f01602080910402602001604051908101604052809291908181526020018280546107ae90611472565b80156107fb5780601f106107d0576101008083540402835291602001916107fb565b820191906000526020600020905b8154815290600101906020018083116107de57829003601f168201915b50505050509050600061081960408051602081019091526000815290565b9050805160000361082b575092915050565b81511561085d5780826040516020016108459291906114f5565b60405160208183030381529060405292505050919050565b61086684610d65565b949350505050565b6001600160a01b03918216600090815260056020908152604080832093909416825291909152205460ff1690565b6108a4610b1e565b6001600160a01b0381166108ce57604051631e4fbdf760e01b81526000600482015260240161047d565b6108d781610b4b565b50565b60006001600160e01b031982166380ac58cd60e01b148061090b57506001600160e01b03198216635b5e139f60e01b145b8061038757506301ffc9a760e01b6001600160e01b0319831614610387565b6000818152600260205260408120546001600160a01b03168061038757604051637e27328960e01b81526004810184905260240161047d565b6105598383836001610dda565b6000828152600260205260408120546001600160a01b039081169083161561099d5761099d818486610ee0565b6001600160a01b038116156109db576109ba600085600080610dda565b6001600160a01b038116600090815260036020526040902080546000190190555b6001600160a01b03851615610a0a576001600160a01b0385166000908152600360205260409020805460010190555b60008481526002602052604080822080546001600160a01b0319166001600160a01b0389811691821790925591518793918516917fddf252ad1be2c89b69c2b068fc378daa952ba7f163c4a11628f55a4df523b3ef91a4949350505050565b6001600160a01b038216610a9357604051633250574960e11b81526000600482015260240161047d565b6000610aa183836000610970565b90506001600160a01b03811615610559576040516339e3563760e11b81526000600482015260240161047d565b6000828152600660205260409020610ae68282611574565b506040518281527ff8e1a15aba9398e019f0b49df1a4fde98ee17ae345cb5f6b5e2c27f5033e8ce79060200160405180910390a15050565b6007546001600160a01b0316331461072a5760405163118cdaa760e01b815233600482015260240161047d565b600780546001600160a01b038381166001600160a01b0319831681179093556040519116919082907f8be0079c531659141344cd1fd0a4f28419497f9722a3daafe3b4186f6b6457e090600090a35050565b6001600160a01b038216610bcf57604051630b61174360e31b81526001600160a01b038316600482015260240161047d565b6001600160a01b03838116600081815260056020908152604080832094871680845294825291829020805460ff191686151590811790915591519182527f17307eab39ab6107e8899845ad3d59bd9653f200f220920489ca2b5937696c31910160405180910390a3505050565b6001600160a01b0383163b156104e157604051630a85bd0160e11b81526001600160a01b0384169063150b7a0290610c7e903390889087908790600401611634565b6020604051808303816000875af1925050508015610cb9575060408051601f3d908101601f19168201909252610cb691810190611671565b60015b610d22573d808015610ce7576040519150601f19603f3d011682016040523d82523d6000602084013e610cec565b606091505b508051600003610d1a57604051633250574960e11b81526001600160a01b038516600482015260240161047d565b805181602001fd5b6001600160e01b03198116630a85bd0160e11b14610d5e57604051633250574960e11b81526001600160a01b038516600482015260240161047d565b5050505050565b6060610d708261092a565b506000610d8860408051602081019091526000815290565b90506000815111610da85760405180602001604052806000815250610dd3565b80610db284610f44565b604051602001610dc39291906114f5565b6040516020818303038152906040525b9392505050565b8080610dee57506001600160a01b03821615155b15610eb0576000610dfe8461092a565b90506001600160a01b03831615801590610e2a5750826001600160a01b0316816001600160a01b031614155b8015610e3d5750610e3b818461086e565b155b15610e665760405163a9fbf51f60e01b81526001600160a01b038416600482015260240161047d565b8115610eae5783856001600160a01b0316826001600160a01b03167f8c5be1e5ebec7d5bd14f71427d1e84f3dd0314c0f7b2291e5b200ac8c7c3b92560405160405180910390a45b505b5050600090815260046020526040902080546001600160a01b0319166001600160a01b0392909216919091179055565b610eeb838383610fd7565b610559576001600160a01b038316610f1957604051637e27328960e01b81526004810182905260240161047d565b60405163177e802f60e01b81526001600160a01b03831660048201526024810182905260440161047d565b60606000610f518361103a565b600101905060008167ffffffffffffffff811115610f7157610f71611287565b6040519080825280601f01601f191660200182016040528015610f9b576020820181803683370190505b5090508181016020015b600019016f181899199a1a9b1b9c1cb0b131b232b360811b600a86061a8153600a8504945084610fa557509392505050565b60006001600160a01b038316158015906108665750826001600160a01b0316846001600160a01b031614806110115750611011848461086e565b806108665750506000908152600460205260409020546001600160a01b03908116911614919050565b60008072184f03e93ff9f4daa797ed6e38ed64bf6a1f0160401b83106110795772184f03e93ff9f4daa797ed6e38ed64bf6a1f0160401b830492506040015b6d04ee2d6d415b85acef810000000083106110a5576d04ee2d6d415b85acef8100000000830492506020015b662386f26fc1000083106110c357662386f26fc10000830492506010015b6305f5e10083106110db576305f5e100830492506008015b61271083106110ef57612710830492506004015b60648310611101576064830492506002015b600a83106103875760010192915050565b6001600160e01b0319811681146108d757600080fd5b60006020828403121561113a57600080fd5b8135610dd381611112565b60005b83811015611160578181015183820152602001611148565b50506000910152565b60008151808452611181816020860160208601611145565b601f01601f19169290920160200192915050565b602081526000610dd36020830184611169565b6000602082840312156111ba57600080fd5b5035919050565b80356001600160a01b03811681146111d857600080fd5b919050565b600080604083850312156111f057600080fd5b6111f9836111c1565b946020939093013593505050565b60008060006060848603121561121c57600080fd5b611225846111c1565b9250611233602085016111c1565b9150604084013590509250925092565b6020808252825182820181905260009190848201906040850190845b8181101561127b5783518352928401929184019160010161125f565b50909695505050505050565b634e487b7160e01b600052604160045260246000fd5b600067ffffffffffffffff808411156112b8576112b8611287565b604051601f8501601f19908116603f011681019082821181831017156112e0576112e0611287565b816040528093508581528686860111156112f957600080fd5b858560208301376000602087830101525050509392505050565b6000806040838503121561132657600080fd5b823567ffffffffffffffff81111561133d57600080fd5b8301601f8101851361134e57600080fd5b61135d8582356020840161129d565b95602094909401359450505050565b60006020828403121561137e57600080fd5b610dd3826111c1565b6000806040838503121561139a57600080fd5b6113a3836111c1565b9150602083013580151581146113b857600080fd5b809150509250929050565b600080600080608085870312156113d957600080fd5b6113e2856111c1565b93506113f0602086016111c1565b925060408501359150606085013567ffffffffffffffff81111561141357600080fd5b8501601f8101871361142457600080fd5b6114338782356020840161129d565b91505092959194509250565b6000806040838503121561145257600080fd5b61145b836111c1565b9150611469602084016111c1565b90509250929050565b600181811c9082168061148657607f821691505b6020821081036114a657634e487b7160e01b600052602260045260246000fd5b50919050565b6000600182016114cc57634e487b7160e01b600052601160045260246000fd5b5060010190565b6040815260006114e66040830185611169565b90508260208301529392505050565b60008351611507818460208801611145565b83519083019061151b818360208801611145565b01949350505050565b601f821115610559576000816000526020600020601f850160051c8101602086101561154d5750805b601f850160051c820191505b8181101561156c57828155600101611559565b505050505050565b815167ffffffffffffffff81111561158e5761158e611287565b6115a28161159c8454611472565b84611524565b602080601f8311600181146115d757600084156115bf5750858301515b600019600386901b1c1916600185901b17855561156c565b600085815260208120601f198616915b82811015611606578886015182559484019460019091019084016115e7565b50858210156116245787850151600019600388901b60f8161c191681555b5050505050600190811b01905550565b6001600160a01b038581168252841660208201526040810183905260806060820181905260009061166790830184611169565b9695505050505050565b60006020828403121561168357600080fd5b8151610dd38161111256fea2646970667358221220165a1f4bdbf61a1872c59d3c65fc46e52ec1120fa8d769c27f8507fea1dd266064736f6c63430008170033",
    "linkReferences": {}
  },
  "methodIdentifiers": {
    "approve(address,uint256)": "095ea7b3",
    "balanceOf(address)": "70a08231",
    "getAllTokens()": "2a5c792a",
    "getApproved(uint256)": "081812fc",
    "getNFT(uint256)": "576f7ea7",
    "isApprovedForAll(address,address)": "e985e9c5",
    "mintNFT(string,uint256)": "5afa3a72",
    "name()": "06fdde03",
    "owner()": "8da5cb5b",
    "ownerOf(uint256)": "6352211e",
    "renounceOwnership()": "715018a6",
    "safeTransferFrom(address,address,uint256)": "42842e0e",
    "safeTransferFrom(address,address,uint256,bytes)": "b88d4fde",
    "setApprovalForAll(address,bool)": "a22cb465",
    "supportsInterface(bytes4)": "01ffc9a7",
    "symbol()": "95d89b41",
    "tokenURI(uint256)": "c87b56dd",
    "transferFrom(address,address,uint256)": "23b872dd",
    "transferOwnership(address)": "f2fde38b"
  },
  "id": 41
}