{"abi":[{"type":"constructor","inputs":[],"stateMutability":"nonpayable"},{"type":"function","name":"approve","inputs":[{"name":"to","type":"address","internalType":"address"},{"name":"tokenId","type":"uint256","internalType":"uint256"}],"outputs":[],"stateMutability":"nonpayable"},{"type":"function","name":"balanceOf","inputs":[{"name":"owner","type":"address","internalType":"address"}],"outputs":[{"name":"","type":"uint256","internalType":"uint256"}],"stateMutability":"view"},{"type":"function","name":"getAllTokens","inputs":[],"outputs":[{"name":"","type":"uint256[]","internalType":"uint256[]"}],"stateMutability":"view"},{"type":"function","name":"getApproved","inputs":[{"name":"tokenId","type":"uint256","internalType":"uint256"}],"outputs":[{"name":"","type":"address","internalType":"address"}],"stateMutability":"view"},{"type":"function","name":"getNFT","inputs":[{"name":"tokenId","type":"uint256","internalType":"uint256"}],"outputs":[{"name":"","type":"tuple","internalType":"struct NFTMarketplace.NFT","components":[{"name":"tokenId","type":"uint256","internalType":"uint256"},{"name":"creator","type":"address","internalType":"address payable"},{"name":"price","type":"uint256","internalType":"uint256"},{"name":"isForSale","type":"bool","internalType":"bool"}]}],"stateMutability":"view"},{"type":"function","name":"isApprovedForAll","inputs":[{"name":"owner","type":"address","internalType":"address"},{"name":"operator","type":"address","internalType":"address"}],"outputs":[{"name":"","type":"bool","internalType":"bool"}],"stateMutability":"view"},{"type":"function","name":"mintNFT","inputs":[{"name":"tokenURI","type":"string","internalType":"string"},{"name":"price","type":"uint256","internalType":"uint256"}],"outputs":[{"name":"","type":"uint256","internalType":"uint256"}],"stateMutability":"nonpayable"},{"type":"function","name":"name","inputs":[],"outputs":[{"name":"","type":"string","internalType":"string"}],"stateMutability":"view"},{"type":"function","name":"owner","inputs":[],"outputs":[{"name":"","type":"address","internalType":"address"}],"stateMutability":"view"},{"type":"function","name":"ownerOf","inputs":[{"name":"tokenId","type":"uint256","internalType":"uint256"}],"outputs":[{"name":"","type":"address","internalType":"address"}],"stateMutability":"view"},{"type":"function","name":"purchaseNFT","inputs":[{"name":"tokenId","type":"uint256","internalType":"uint256"}],"outputs":[],"stateMutability":"payable"},{"type":"function","name":"renounceOwnership","inputs":[],"outputs":[],"stateMutability":"nonpayable"},{"type":"function","name":"safeTransferFrom","inputs":[{"name":"from","type":"address","internalType":"address"},{"name":"to","type":"address","internalType":"address"},{"name":"tokenId","type":"uint256","internalType":"uint256"}],"outputs":[],"stateMutability":"nonpayable"},{"type":"function","name":"safeTransferFrom","inputs":[{"name":"from","type":"address","internalType":"address"},{"name":"to","type":"address","internalType":"address"},{"name":"tokenId","type":"uint256","internalType":"uint256"},{"name":"data","type":"bytes","internalType":"bytes"}],"outputs":[],"stateMutability":"nonpayable"},{"type":"function","name":"setApprovalForAll","inputs":[{"name":"operator","type":"address","internalType":"address"},{"name":"approved","type":"bool","internalType":"bool"}],"outputs":[],"stateMutability":"nonpayable"},{"type":"function","name":"supportsInterface","inputs":[{"name":"interfaceId","type":"bytes4","internalType":"bytes4"}],"outputs":[{"name":"","type":"bool","internalType":"bool"}],"stateMutability":"view"},{"type":"function","name":"symbol","inputs":[],"outputs":[{"name":"","type":"string","internalType":"string"}],"stateMutability":"view"},{"type":"function","name":"tokenURI","inputs":[{"name":"tokenId","type":"uint256","internalType":"uint256"}],"outputs":[{"name":"","type":"string","internalType":"string"}],"stateMutability":"view"},{"type":"function","name":"transferFrom","inputs":[{"name":"from","type":"address","internalType":"address"},{"name":"to","type":"address","internalType":"address"},{"name":"tokenId","type":"uint256","internalType":"uint256"}],"outputs":[],"stateMutability":"nonpayable"},{"type":"function","name":"transferOwnership","inputs":[{"name":"newOwner","type":"address","internalType":"address"}],"outputs":[],"stateMutability":"nonpayable"},{"type":"event","name":"Approval","inputs":[{"name":"owner","type":"address","indexed":true,"internalType":"address"},{"name":"approved","type":"address","indexed":true,"internalType":"address"},{"name":"tokenId","type":"uint256","indexed":true,"internalType":"uint256"}],"anonymous":false},{"type":"event","name":"ApprovalForAll","inputs":[{"name":"owner","type":"address","indexed":true,"internalType":"address"},{"name":"operator","type":"address","indexed":true,"internalType":"address"},{"name":"approved","type":"bool","indexed":false,"internalType":"bool"}],"anonymous":false},{"type":"event","name":"BatchMetadataUpdate","inputs":[{"name":"_fromTokenId","type":"uint256","indexed":false,"internalType":"uint256"},{"name":"_toTokenId","type":"uint256","indexed":false,"internalType":"uint256"}],"anonymous":false},{"type":"event","name":"MetadataUpdate","inputs":[{"name":"_tokenId","type":"uint256","indexed":false,"internalType":"uint256"}],"anonymous":false},{"type":"event","name":"NFTListed","inputs":[{"name":"tokenId","type":"uint256","indexed":true,"internalType":"uint256"},{"name":"price","type":"uint256","indexed":false,"internalType":"uint256"}],"anonymous":false},{"type":"event","name":"NFTMinted","inputs":[{"name":"tokenId","type":"uint256","indexed":true,"internalType":"uint256"},{"name":"creator","type":"address","indexed":true,"internalType":"address"},{"name":"tokenURI","type":"string","indexed":false,"internalType":"string"},{"name":"price","type":"uint256","indexed":false,"internalType":"uint256"}],"anonymous":false},{"type":"event","name":"NFTPurchased","inputs":[{"name":"tokenId","type":"uint256","indexed":true,"internalType":"uint256"},{"name":"buyer","type":"address","indexed":true,"internalType":"address"},{"name":"price","type":"uint256","indexed":false,"internalType":"uint256"}],"anonymous":false},{"type":"event","name":"OwnershipTransferred","inputs":[{"name":"previousOwner","type":"address","indexed":true,"internalType":"address"},{"name":"newOwner","type":"address","indexed":true,"internalType":"address"}],"anonymous":false},{"type":"event","name":"Transfer","inputs":[{"name":"from","type":"address","indexed":true,"internalType":"address"},{"name":"to","type":"address","indexed":true,"internalType":"address"},{"name":"tokenId","type":"uint256","indexed":true,"internalType":"uint256"}],"anonymous":false},{"type":"error","name":"ERC721IncorrectOwner","inputs":[{"name":"sender","type":"address","internalType":"address"},{"name":"tokenId","type":"uint256","internalType":"uint256"},{"name":"owner","type":"address","internalType":"address"}]},{"type":"error","name":"ERC721InsufficientApproval","inputs":[{"name":"operator","type":"address","internalType":"address"},{"name":"tokenId","type":"uint256","internalType":"uint256"}]},{"type":"error","name":"ERC721InvalidApprover","inputs":[{"name":"approver","type":"address","internalType":"address"}]},{"type":"error","name":"ERC721InvalidOperator","inputs":[{"name":"operator","type":"address","internalType":"address"}]},{"type":"error","name":"ERC721InvalidOwner","inputs":[{"name":"owner","type":"address","internalType":"address"}]},{"type":"error","name":"ERC721InvalidReceiver","inputs":[{"name":"receiver","type":"address","internalType":"address"}]},{"type":"error","name":"ERC721InvalidSender","inputs":[{"name":"sender","type":"address","internalType":"address"}]},{"type":"error","name":"ERC721NonexistentToken","inputs":[{"name":"tokenId","type":"uint256","internalType":"uint256"}]},{"type":"error","name":"OwnableInvalidOwner","inputs":[{"name":"owner","type":"address","internalType":"address"}]},{"type":"error","name":"OwnableUnauthorizedAccount","inputs":[{"name":"account","type":"address","internalType":"address"}]}],"bytecode":{"object":"0x608060405260006008553480156200001657600080fd5b50336040518060400160405280600e81526020016d4e46544d61726b6574706c61636560901b815250604051806040016040528060048152602001634e46544d60e01b81525081600090816200006d9190620001b9565b5060016200007c8282620001b9565b5050506001600160a01b038116620000ae57604051631e4fbdf760e01b81526000600482015260240160405180910390fd5b620000b981620000c0565b5062000285565b600780546001600160a01b038381166001600160a01b0319831681179093556040519116919082907f8be0079c531659141344cd1fd0a4f28419497f9722a3daafe3b4186f6b6457e090600090a35050565b634e487b7160e01b600052604160045260246000fd5b600181811c908216806200013d57607f821691505b6020821081036200015e57634e487b7160e01b600052602260045260246000fd5b50919050565b601f821115620001b4576000816000526020600020601f850160051c810160208610156200018f5750805b601f850160051c820191505b81811015620001b0578281556001016200019b565b5050505b505050565b81516001600160401b03811115620001d557620001d562000112565b620001ed81620001e6845462000128565b8462000164565b602080601f8311600181146200022557600084156200020c5750858301515b600019600386901b1c1916600185901b178555620001b0565b600085815260208120601f198616915b82811015620002565788860151825594840194600190910190840162000235565b5085821015620002755787850151600019600388901b60f8161c191681555b5050505050600190811b01905550565b611a0480620002956000396000f3fe60806040526004361061011f5760003560e01c80636352211e116100a0578063a22cb46511610064578063a22cb465146103ca578063b88d4fde146103ea578063c87b56dd1461040a578063e985e9c51461042a578063f2fde38b1461044a57600080fd5b80636352211e1461034257806370a0823114610362578063715018a6146103825780638da5cb5b1461039757806395d89b41146103b557600080fd5b806323b872dd116100e757806323b872dd146101e85780632a5c792a1461020857806342842e0e1461022a578063576f7ea71461024a5780635afa3a721461031457600080fd5b806301ffc9a71461012457806306fdde0314610159578063081812fc1461017b578063095ea7b3146101b3578063150bde03146101d5575b600080fd5b34801561013057600080fd5b5061014461013f366004611468565b61046a565b60405190151581526020015b60405180910390f35b34801561016557600080fd5b5061016e610495565b60405161015091906114d5565b34801561018757600080fd5b5061019b6101963660046114e8565b610527565b6040516001600160a01b039091168152602001610150565b3480156101bf57600080fd5b506101d36101ce36600461151d565b610550565b005b6101d36101e33660046114e8565b61055f565b3480156101f457600080fd5b506101d3610203366004611547565b6106f4565b34801561021457600080fd5b5061021d61077f565b6040516101509190611583565b34801561023657600080fd5b506101d3610245366004611547565b6107d6565b34801561025657600080fd5b506102d66102653660046114e8565b6040805160808082018352600080835260208084018290528385018290526060938401829052948152600a8552839020835191820184528054825260018101546001600160a01b03169482019490945260028401549281019290925260039092015460ff1615159181019190915290565b6040516101509190815181526020808301516001600160a01b0316908201526040808301519082015260609182015115159181019190915260800190565b34801561032057600080fd5b5061033461032f366004611653565b6107f6565b604051908152602001610150565b34801561034e57600080fd5b5061019b61035d3660046114e8565b61095d565b34801561036e57600080fd5b5061033461037d3660046116ac565b610968565b34801561038e57600080fd5b506101d36109b0565b3480156103a357600080fd5b506007546001600160a01b031661019b565b3480156103c157600080fd5b5061016e6109c4565b3480156103d657600080fd5b506101d36103e53660046116c7565b6109d3565b3480156103f657600080fd5b506101d3610405366004611703565b6109de565b34801561041657600080fd5b5061016e6104253660046114e8565b6109f5565b34801561043657600080fd5b5061014461044536600461177f565b610b06565b34801561045657600080fd5b506101d36104653660046116ac565b610b34565b60006001600160e01b03198216632483248360e11b148061048f575061048f82610b72565b92915050565b6060600080546104a4906117b2565b80601f01602080910402602001604051908101604052809291908181526020018280546104d0906117b2565b801561051d5780601f106104f25761010080835404028352916020019161051d565b820191906000526020600020905b81548152906001019060200180831161050057829003601f168201915b5050505050905090565b600061053282610bc2565b506000828152600460205260409020546001600160a01b031661048f565b61055b828233610bfb565b5050565b6000818152600a602090815260409182902082516080810184528154815260018201546001600160a01b03169281019290925260028101549282019290925260039091015460ff161515606082018190526105f75760405162461bcd60e51b81526020600482015260136024820152724e4654206973206e6f7420666f722073616c6560681b60448201526064015b60405180910390fd5b80604001513410156106425760405162461bcd60e51b8152602060048201526014602482015273125b9cdd59999a58da595b9d081c185e5b595b9d60621b60448201526064016105ee565b600061064d8361095d565b905061065a813385610c08565b6040516001600160a01b038216903480156108fc02916000818181858888f1935050505015801561068f573d6000803e3d6000fd5b506000838152600a602052604090819020600301805460ff19166001179055828101519051339185917fad546cba5af920bc2c64678bbd69f3d8965ac26d1b82f7ebf6f098aaa8335282916106e79190815260200190565b60405180910390a3505050565b6001600160a01b03821661071e57604051633250574960e11b8152600060048201526024016105ee565b600061072b838333610cb8565b9050836001600160a01b0316816001600160a01b031614610779576040516364283d7b60e01b81526001600160a01b03808616600483015260248201849052821660448201526064016105ee565b50505050565b6060600980548060200260200160405190810160405280929190818152602001828054801561051d57602002820191906000526020600020905b8154815260200190600101908083116107b9575050505050905090565b6107f1838383604051806020016040528060008152506109de565b505050565b60008082116108475760405162461bcd60e51b815260206004820152601f60248201527f5072696365206d7573742062652067726561746572207468616e207a65726f0060448201526064016105ee565b60088054906000610857836117ec565b90915550506008546108693382610db1565b6108738185610e16565b604080516080810182528281523360208083018281528385018881526001606086018181526000898152600a90955287852096518755925186820180546001600160a01b0319166001600160a01b039092169190911790559051600286015590516003909401805460ff19169415159490941790935560098054938401815590527f6e1540171b6c0c960b71a7020d9f60077f6af931a8bbf590da0223dacf75c7af909101839055905182907f23eae53a2b33c20fc1b74912840a6a2a72adc26effa68729f81e756c875df2899061094e9088908890611813565b60405180910390a39392505050565b600061048f82610bc2565b60006001600160a01b038216610994576040516322718ad960e21b8152600060048201526024016105ee565b506001600160a01b031660009081526003602052604090205490565b6109b8610e66565b6109c26000610e93565b565b6060600180546104a4906117b2565b61055b338383610ee5565b6109e98484846106f4565b61077984848484610f7c565b6060610a0082610bc2565b5060008281526006602052604081208054610a1a906117b2565b80601f0160208091040260200160405190810160405280929190818152602001828054610a46906117b2565b8015610a935780601f10610a6857610100808354040283529160200191610a93565b820191906000526020600020905b815481529060010190602001808311610a7657829003601f168201915b505050505090506000610ab160408051602081019091526000815290565b90508051600003610ac3575092915050565b815115610af5578082604051602001610add929190611835565b60405160208183030381529060405292505050919050565b610afe846110a5565b949350505050565b6001600160a01b03918216600090815260056020908152604080832093909416825291909152205460ff1690565b610b3c610e66565b6001600160a01b038116610b6657604051631e4fbdf760e01b8152600060048201526024016105ee565b610b6f81610e93565b50565b60006001600160e01b031982166380ac58cd60e01b1480610ba357506001600160e01b03198216635b5e139f60e01b145b8061048f57506301ffc9a760e01b6001600160e01b031983161461048f565b6000818152600260205260408120546001600160a01b03168061048f57604051637e27328960e01b8152600481018490526024016105ee565b6107f1838383600161111a565b6001600160a01b038216610c3257604051633250574960e11b8152600060048201526024016105ee565b6000610c4083836000610cb8565b90506001600160a01b038116610c6c57604051637e27328960e01b8152600481018390526024016105ee565b836001600160a01b0316816001600160a01b031614610779576040516364283d7b60e01b81526001600160a01b03808616600483015260248201849052821660448201526064016105ee565b6000828152600260205260408120546001600160a01b0390811690831615610ce557610ce5818486611220565b6001600160a01b03811615610d2357610d0260008560008061111a565b6001600160a01b038116600090815260036020526040902080546000190190555b6001600160a01b03851615610d52576001600160a01b0385166000908152600360205260409020805460010190555b60008481526002602052604080822080546001600160a01b0319166001600160a01b0389811691821790925591518793918516917fddf252ad1be2c89b69c2b068fc378daa952ba7f163c4a11628f55a4df523b3ef91a4949350505050565b6001600160a01b038216610ddb57604051633250574960e11b8152600060048201526024016105ee565b6000610de983836000610cb8565b90506001600160a01b038116156107f1576040516339e3563760e11b8152600060048201526024016105ee565b6000828152600660205260409020610e2e82826118b4565b506040518281527ff8e1a15aba9398e019f0b49df1a4fde98ee17ae345cb5f6b5e2c27f5033e8ce79060200160405180910390a15050565b6007546001600160a01b031633146109c25760405163118cdaa760e01b81523360048201526024016105ee565b600780546001600160a01b038381166001600160a01b0319831681179093556040519116919082907f8be0079c531659141344cd1fd0a4f28419497f9722a3daafe3b4186f6b6457e090600090a35050565b6001600160a01b038216610f1757604051630b61174360e31b81526001600160a01b03831660048201526024016105ee565b6001600160a01b03838116600081815260056020908152604080832094871680845294825291829020805460ff191686151590811790915591519182527f17307eab39ab6107e8899845ad3d59bd9653f200f220920489ca2b5937696c3191016106e7565b6001600160a01b0383163b1561077957604051630a85bd0160e11b81526001600160a01b0384169063150b7a0290610fbe903390889087908790600401611974565b6020604051808303816000875af1925050508015610ff9575060408051601f3d908101601f19168201909252610ff6918101906119b1565b60015b611062573d808015611027576040519150601f19603f3d011682016040523d82523d6000602084013e61102c565b606091505b50805160000361105a57604051633250574960e11b81526001600160a01b03851660048201526024016105ee565b805181602001fd5b6001600160e01b03198116630a85bd0160e11b1461109e57604051633250574960e11b81526001600160a01b03851660048201526024016105ee565b5050505050565b60606110b082610bc2565b5060006110c860408051602081019091526000815290565b905060008151116110e85760405180602001604052806000815250611113565b806110f284611284565b604051602001611103929190611835565b6040516020818303038152906040525b9392505050565b808061112e57506001600160a01b03821615155b156111f057600061113e84610bc2565b90506001600160a01b0383161580159061116a5750826001600160a01b0316816001600160a01b031614155b801561117d575061117b8184610b06565b155b156111a65760405163a9fbf51f60e01b81526001600160a01b03841660048201526024016105ee565b81156111ee5783856001600160a01b0316826001600160a01b03167f8c5be1e5ebec7d5bd14f71427d1e84f3dd0314c0f7b2291e5b200ac8c7c3b92560405160405180910390a45b505b5050600090815260046020526040902080546001600160a01b0319166001600160a01b0392909216919091179055565b61122b838383611317565b6107f1576001600160a01b03831661125957604051637e27328960e01b8152600481018290526024016105ee565b60405163177e802f60e01b81526001600160a01b0383166004820152602481018290526044016105ee565b606060006112918361137a565b600101905060008167ffffffffffffffff8111156112b1576112b16115c7565b6040519080825280601f01601f1916602001820160405280156112db576020820181803683370190505b5090508181016020015b600019016f181899199a1a9b1b9c1cb0b131b232b360811b600a86061a8153600a85049450846112e557509392505050565b60006001600160a01b03831615801590610afe5750826001600160a01b0316846001600160a01b0316148061135157506113518484610b06565b80610afe5750506000908152600460205260409020546001600160a01b03908116911614919050565b60008072184f03e93ff9f4daa797ed6e38ed64bf6a1f0160401b83106113b95772184f03e93ff9f4daa797ed6e38ed64bf6a1f0160401b830492506040015b6d04ee2d6d415b85acef810000000083106113e5576d04ee2d6d415b85acef8100000000830492506020015b662386f26fc10000831061140357662386f26fc10000830492506010015b6305f5e100831061141b576305f5e100830492506008015b612710831061142f57612710830492506004015b60648310611441576064830492506002015b600a831061048f5760010192915050565b6001600160e01b031981168114610b6f57600080fd5b60006020828403121561147a57600080fd5b813561111381611452565b60005b838110156114a0578181015183820152602001611488565b50506000910152565b600081518084526114c1816020860160208601611485565b601f01601f19169290920160200192915050565b60208152600061111360208301846114a9565b6000602082840312156114fa57600080fd5b5035919050565b80356001600160a01b038116811461151857600080fd5b919050565b6000806040838503121561153057600080fd5b61153983611501565b946020939093013593505050565b60008060006060848603121561155c57600080fd5b61156584611501565b925061157360208501611501565b9150604084013590509250925092565b6020808252825182820181905260009190848201906040850190845b818110156115bb5783518352928401929184019160010161159f565b50909695505050505050565b634e487b7160e01b600052604160045260246000fd5b600067ffffffffffffffff808411156115f8576115f86115c7565b604051601f8501601f19908116603f01168101908282118183101715611620576116206115c7565b8160405280935085815286868601111561163957600080fd5b858560208301376000602087830101525050509392505050565b6000806040838503121561166657600080fd5b823567ffffffffffffffff81111561167d57600080fd5b8301601f8101851361168e57600080fd5b61169d858235602084016115dd565b95602094909401359450505050565b6000602082840312156116be57600080fd5b61111382611501565b600080604083850312156116da57600080fd5b6116e383611501565b9150602083013580151581146116f857600080fd5b809150509250929050565b6000806000806080858703121561171957600080fd5b61172285611501565b935061173060208601611501565b925060408501359150606085013567ffffffffffffffff81111561175357600080fd5b8501601f8101871361176457600080fd5b611773878235602084016115dd565b91505092959194509250565b6000806040838503121561179257600080fd5b61179b83611501565b91506117a960208401611501565b90509250929050565b600181811c908216806117c657607f821691505b6020821081036117e657634e487b7160e01b600052602260045260246000fd5b50919050565b60006001820161180c57634e487b7160e01b600052601160045260246000fd5b5060010190565b60408152600061182660408301856114a9565b90508260208301529392505050565b60008351611847818460208801611485565b83519083019061185b818360208801611485565b01949350505050565b601f8211156107f1576000816000526020600020601f850160051c8101602086101561188d5750805b601f850160051c820191505b818110156118ac57828155600101611899565b505050505050565b815167ffffffffffffffff8111156118ce576118ce6115c7565b6118e2816118dc84546117b2565b84611864565b602080601f83116001811461191757600084156118ff5750858301515b600019600386901b1c1916600185901b1785556118ac565b600085815260208120601f198616915b8281101561194657888601518255948401946001909101908401611927565b50858210156119645787850151600019600388901b60f8161c191681555b5050505050600190811b01905550565b6001600160a01b03858116825284166020820152604081018390526080606082018190526000906119a7908301846114a9565b9695505050505050565b6000602082840312156119c357600080fd5b81516111138161145256fea26469706673582212208d5c6777541d166148eb9f77a4fec1e159ac05269eefa9e2f3e1911bccaa0e4c64736f6c63430008170033","linkReferences":{}},"methodIdentifiers":{"approve(address,uint256)":"095ea7b3","balanceOf(address)":"70a08231","getAllTokens()":"2a5c792a","getApproved(uint256)":"081812fc","getNFT(uint256)":"576f7ea7","isApprovedForAll(address,address)":"e985e9c5","mintNFT(string,uint256)":"5afa3a72","name()":"06fdde03","owner()":"8da5cb5b","ownerOf(uint256)":"6352211e","purchaseNFT(uint256)":"150bde03","renounceOwnership()":"715018a6","safeTransferFrom(address,address,uint256)":"42842e0e","safeTransferFrom(address,address,uint256,bytes)":"b88d4fde","setApprovalForAll(address,bool)":"a22cb465","supportsInterface(bytes4)":"01ffc9a7","symbol()":"95d89b41","tokenURI(uint256)":"c87b56dd","transferFrom(address,address,uint256)":"23b872dd","transferOwnership(address)":"f2fde38b"},"id":41}