{
    "_format": "hh-sol-artifact-1",
    "contractName": "NFTMarketplace",
    "sourceName": "contracts/NFTMarketplace.sol",
    "abi": [
        {
            "inputs": [],
            "stateMutability": "nonpayable",
            "type": "constructor"
        },
        {
            "inputs": [
                {
                    "internalType": "address",
                    "name": "sender",
                    "type": "address"
                },
                {
                    "internalType": "uint256",
                    "name": "tokenId",
                    "type": "uint256"
                },
                {
                    "internalType": "address",
                    "name": "owner",
                    "type": "address"
                }
            ],
            "name": "ERC721IncorrectOwner",
            "type": "error"
        },
        {
            "inputs": [
                {
                    "internalType": "address",
                    "name": "operator",
                    "type": "address"
                },
                {
                    "internalType": "uint256",
                    "name": "tokenId",
                    "type": "uint256"
                }
            ],
            "name": "ERC721InsufficientApproval",
            "type": "error"
        },
        {
            "inputs": [
                {
                    "internalType": "address",
                    "name": "approver",
                    "type": "address"
                }
            ],
            "name": "ERC721InvalidApprover",
            "type": "error"
        },
        {
            "inputs": [
                {
                    "internalType": "address",
                    "name": "operator",
                    "type": "address"
                }
            ],
            "name": "ERC721InvalidOperator",
            "type": "error"
        },
        {
            "inputs": [
                {
                    "internalType": "address",
                    "name": "owner",
                    "type": "address"
                }
            ],
            "name": "ERC721InvalidOwner",
            "type": "error"
        },
        {
            "inputs": [
                {
                    "internalType": "address",
                    "name": "receiver",
                    "type": "address"
                }
            ],
            "name": "ERC721InvalidReceiver",
            "type": "error"
        },
        {
            "inputs": [
                {
                    "internalType": "address",
                    "name": "sender",
                    "type": "address"
                }
            ],
            "name": "ERC721InvalidSender",
            "type": "error"
        },
        {
            "inputs": [
                {
                    "internalType": "uint256",
                    "name": "tokenId",
                    "type": "uint256"
                }
            ],
            "name": "ERC721NonexistentToken",
            "type": "error"
        },
        {
            "inputs": [
                {
                    "internalType": "address",
                    "name": "owner",
                    "type": "address"
                }
            ],
            "name": "OwnableInvalidOwner",
            "type": "error"
        },
        {
            "inputs": [
                {
                    "internalType": "address",
                    "name": "account",
                    "type": "address"
                }
            ],
            "name": "OwnableUnauthorizedAccount",
            "type": "error"
        },
        {
            "anonymous": false,
            "inputs": [
                {
                    "indexed": true,
                    "internalType": "address",
                    "name": "owner",
                    "type": "address"
                },
                {
                    "indexed": true,
                    "internalType": "address",
                    "name": "approved",
                    "type": "address"
                },
                {
                    "indexed": true,
                    "internalType": "uint256",
                    "name": "tokenId",
                    "type": "uint256"
                }
            ],
            "name": "Approval",
            "type": "event"
        },
        {
            "anonymous": false,
            "inputs": [
                {
                    "indexed": true,
                    "internalType": "address",
                    "name": "owner",
                    "type": "address"
                },
                {
                    "indexed": true,
                    "internalType": "address",
                    "name": "operator",
                    "type": "address"
                },
                {
                    "indexed": false,
                    "internalType": "bool",
                    "name": "approved",
                    "type": "bool"
                }
            ],
            "name": "ApprovalForAll",
            "type": "event"
        },
        {
            "anonymous": false,
            "inputs": [
                {
                    "indexed": false,
                    "internalType": "uint256",
                    "name": "_fromTokenId",
                    "type": "uint256"
                },
                {
                    "indexed": false,
                    "internalType": "uint256",
                    "name": "_toTokenId",
                    "type": "uint256"
                }
            ],
            "name": "BatchMetadataUpdate",
            "type": "event"
        },
        {
            "anonymous": false,
            "inputs": [
                {
                    "indexed": false,
                    "internalType": "uint256",
                    "name": "_tokenId",
                    "type": "uint256"
                }
            ],
            "name": "MetadataUpdate",
            "type": "event"
        },
        {
            "anonymous": false,
            "inputs": [
                {
                    "indexed": true,
                    "internalType": "uint256",
                    "name": "tokenId",
                    "type": "uint256"
                },
                {
                    "indexed": false,
                    "internalType": "uint256",
                    "name": "price",
                    "type": "uint256"
                }
            ],
            "name": "NFTListed",
            "type": "event"
        },
        {
            "anonymous": false,
            "inputs": [
                {
                    "indexed": true,
                    "internalType": "uint256",
                    "name": "tokenId",
                    "type": "uint256"
                },
                {
                    "indexed": true,
                    "internalType": "address",
                    "name": "creator",
                    "type": "address"
                },
                {
                    "indexed": false,
                    "internalType": "string",
                    "name": "tokenURI",
                    "type": "string"
                },
                {
                    "indexed": false,
                    "internalType": "uint256",
                    "name": "price",
                    "type": "uint256"
                }
            ],
            "name": "NFTMinted",
            "type": "event"
        },
        {
            "anonymous": false,
            "inputs": [
                {
                    "indexed": true,
                    "internalType": "uint256",
                    "name": "tokenId",
                    "type": "uint256"
                },
                {
                    "indexed": true,
                    "internalType": "address",
                    "name": "buyer",
                    "type": "address"
                },
                {
                    "indexed": false,
                    "internalType": "uint256",
                    "name": "price",
                    "type": "uint256"
                }
            ],
            "name": "NFTPurchased",
            "type": "event"
        },
        {
            "anonymous": false,
            "inputs": [
                {
                    "indexed": true,
                    "internalType": "address",
                    "name": "previousOwner",
                    "type": "address"
                },
                {
                    "indexed": true,
                    "internalType": "address",
                    "name": "newOwner",
                    "type": "address"
                }
            ],
            "name": "OwnershipTransferred",
            "type": "event"
        },
        {
            "anonymous": false,
            "inputs": [
                {
                    "indexed": true,
                    "internalType": "address",
                    "name": "from",
                    "type": "address"
                },
                {
                    "indexed": true,
                    "internalType": "address",
                    "name": "to",
                    "type": "address"
                },
                {
                    "indexed": true,
                    "internalType": "uint256",
                    "name": "tokenId",
                    "type": "uint256"
                }
            ],
            "name": "Transfer",
            "type": "event"
        },
        {
            "inputs": [
                {
                    "internalType": "address",
                    "name": "to",
                    "type": "address"
                },
                {
                    "internalType": "uint256",
                    "name": "tokenId",
                    "type": "uint256"
                }
            ],
            "name": "approve",
            "outputs": [],
            "stateMutability": "nonpayable",
            "type": "function"
        },
        {
            "inputs": [
                {
                    "internalType": "address",
                    "name": "owner",
                    "type": "address"
                }
            ],
            "name": "balanceOf",
            "outputs": [
                {
                    "internalType": "uint256",
                    "name": "",
                    "type": "uint256"
                }
            ],
            "stateMutability": "view",
            "type": "function"
        },
        {
            "inputs": [],
            "name": "getAllTokens",
            "outputs": [
                {
                    "internalType": "uint256[]",
                    "name": "",
                    "type": "uint256[]"
                }
            ],
            "stateMutability": "view",
            "type": "function"
        },
        {
            "inputs": [
                {
                    "internalType": "uint256",
                    "name": "tokenId",
                    "type": "uint256"
                }
            ],
            "name": "getApproved",
            "outputs": [
                {
                    "internalType": "address",
                    "name": "",
                    "type": "address"
                }
            ],
            "stateMutability": "view",
            "type": "function"
        },
        {
            "inputs": [
                {
                    "internalType": "address",
                    "name": "owner",
                    "type": "address"
                },
                {
                    "internalType": "address",
                    "name": "operator",
                    "type": "address"
                }
            ],
            "name": "isApprovedForAll",
            "outputs": [
                {
                    "internalType": "bool",
                    "name": "",
                    "type": "bool"
                }
            ],
            "stateMutability": "view",
            "type": "function"
        },
        {
            "inputs": [
                {
                    "internalType": "string",
                    "name": "tokenURI",
                    "type": "string"
                },
                {
                    "internalType": "uint256",
                    "name": "price",
                    "type": "uint256"
                }
            ],
            "name": "mintNFT",
            "outputs": [
                {
                    "internalType": "uint256",
                    "name": "",
                    "type": "uint256"
                }
            ],
            "stateMutability": "nonpayable",
            "type": "function"
        },
        {
            "inputs": [],
            "name": "name",
            "outputs": [
                {
                    "internalType": "string",
                    "name": "",
                    "type": "string"
                }
            ],
            "stateMutability": "view",
            "type": "function"
        },
        {
            "inputs": [],
            "name": "owner",
            "outputs": [
                {
                    "internalType": "address",
                    "name": "",
                    "type": "address"
                }
            ],
            "stateMutability": "view",
            "type": "function"
        },
        {
            "inputs": [
                {
                    "internalType": "uint256",
                    "name": "tokenId",
                    "type": "uint256"
                }
            ],
            "name": "ownerOf",
            "outputs": [
                {
                    "internalType": "address",
                    "name": "",
                    "type": "address"
                }
            ],
            "stateMutability": "view",
            "type": "function"
        },
        {
            "inputs": [],
            "name": "renounceOwnership",
            "outputs": [],
            "stateMutability": "nonpayable",
            "type": "function"
        },
        {
            "inputs": [
                {
                    "internalType": "address",
                    "name": "from",
                    "type": "address"
                },
                {
                    "internalType": "address",
                    "name": "to",
                    "type": "address"
                },
                {
                    "internalType": "uint256",
                    "name": "tokenId",
                    "type": "uint256"
                }
            ],
            "name": "safeTransferFrom",
            "outputs": [],
            "stateMutability": "nonpayable",
            "type": "function"
        },
        {
            "inputs": [
                {
                    "internalType": "address",
                    "name": "from",
                    "type": "address"
                },
                {
                    "internalType": "address",
                    "name": "to",
                    "type": "address"
                },
                {
                    "internalType": "uint256",
                    "name": "tokenId",
                    "type": "uint256"
                },
                {
                    "internalType": "bytes",
                    "name": "data",
                    "type": "bytes"
                }
            ],
            "name": "safeTransferFrom",
            "outputs": [],
            "stateMutability": "nonpayable",
            "type": "function"
        },
        {
            "inputs": [
                {
                    "internalType": "address",
                    "name": "operator",
                    "type": "address"
                },
                {
                    "internalType": "bool",
                    "name": "approved",
                    "type": "bool"
                }
            ],
            "name": "setApprovalForAll",
            "outputs": [],
            "stateMutability": "nonpayable",
            "type": "function"
        },
        {
            "inputs": [
                {
                    "internalType": "bytes4",
                    "name": "interfaceId",
                    "type": "bytes4"
                }
            ],
            "name": "supportsInterface",
            "outputs": [
                {
                    "internalType": "bool",
                    "name": "",
                    "type": "bool"
                }
            ],
            "stateMutability": "view",
            "type": "function"
        },
        {
            "inputs": [],
            "name": "symbol",
            "outputs": [
                {
                    "internalType": "string",
                    "name": "",
                    "type": "string"
                }
            ],
            "stateMutability": "view",
            "type": "function"
        },
        {
            "inputs": [
                {
                    "internalType": "uint256",
                    "name": "tokenId",
                    "type": "uint256"
                }
            ],
            "name": "tokenURI",
            "outputs": [
                {
                    "internalType": "string",
                    "name": "",
                    "type": "string"
                }
            ],
            "stateMutability": "view",
            "type": "function"
        },
        {
            "inputs": [
                {
                    "internalType": "address",
                    "name": "from",
                    "type": "address"
                },
                {
                    "internalType": "address",
                    "name": "to",
                    "type": "address"
                },
                {
                    "internalType": "uint256",
                    "name": "tokenId",
                    "type": "uint256"
                }
            ],
            "name": "transferFrom",
            "outputs": [],
            "stateMutability": "nonpayable",
            "type": "function"
        },
        {
            "inputs": [
                {
                    "internalType": "address",
                    "name": "newOwner",
                    "type": "address"
                }
            ],
            "name": "transferOwnership",
            "outputs": [],
            "stateMutability": "nonpayable",
            "type": "function"
        }
    ],
    "bytecode": "0x60806040523480156200001157600080fd5b50336040518060400160405280600e81526020017f4e46544d61726b6574706c6163650000000000000000000000000000000000008152506040518060400160405280600481526020017f4e46544d000000000000000000000000000000000000000000000000000000008152508160009081620000909190620004fa565b508060019081620000a29190620004fa565b505050600073ffffffffffffffffffffffffffffffffffffffff168173ffffffffffffffffffffffffffffffffffffffff16036200011a5760006040517f1e4fbdf700000000000000000000000000000000000000000000000000000000815260040162000111919062000626565b60405180910390fd5b6200012b81620001ac60201b60201c565b5060006040516200013c9062000272565b62000148919062000686565b604051809103906000f08015801562000165573d6000803e3d6000fd5b50600860006101000a81548173ffffffffffffffffffffffffffffffffffffffff021916908373ffffffffffffffffffffffffffffffffffffffff160217905550620006a3565b6000600760009054906101000a900473ffffffffffffffffffffffffffffffffffffffff16905081600760006101000a81548173ffffffffffffffffffffffffffffffffffffffff021916908373ffffffffffffffffffffffffffffffffffffffff1602179055508173ffffffffffffffffffffffffffffffffffffffff168173ffffffffffffffffffffffffffffffffffffffff167f8be0079c531659141344cd1fd0a4f28419497f9722a3daafe3b4186f6b6457e060405160405180910390a35050565b610331806200313183390190565b600081519050919050565b7f4e487b7100000000000000000000000000000000000000000000000000000000600052604160045260246000fd5b7f4e487b7100000000000000000000000000000000000000000000000000000000600052602260045260246000fd5b600060028204905060018216806200030257607f821691505b602082108103620003185762000317620002ba565b5b50919050565b60008190508160005260206000209050919050565b60006020601f8301049050919050565b600082821b905092915050565b600060088302620003827fffffffffffffffffffffffffffffffffffffffffffffffffffffffffffffffff8262000343565b6200038e868362000343565b95508019841693508086168417925050509392505050565b6000819050919050565b6000819050919050565b6000620003db620003d5620003cf84620003a6565b620003b0565b620003a6565b9050919050565b6000819050919050565b620003f783620003ba565b6200040f6200040682620003e2565b84845462000350565b825550505050565b600090565b6200042662000417565b62000433818484620003ec565b505050565b5b818110156200045b576200044f6000826200041c565b60018101905062000439565b5050565b601f821115620004aa5762000474816200031e565b6200047f8462000333565b810160208510156200048f578190505b620004a76200049e8562000333565b83018262000438565b50505b505050565b600082821c905092915050565b6000620004cf60001984600802620004af565b1980831691505092915050565b6000620004ea8383620004bc565b9150826002028217905092915050565b620005058262000280565b67ffffffffffffffff8111156200052157620005206200028b565b5b6200052d8254620002e9565b6200053a8282856200045f565b600060209050601f8311600181146200057257600084156200055d578287015190505b620005698582620004dc565b865550620005d9565b601f19841662000582866200031e565b60005b82811015620005ac5784890151825560018201915060208501945060208101905062000585565b86831015620005cc5784890151620005c8601f891682620004bc565b8355505b6001600288020188555050505b505050505050565b600073ffffffffffffffffffffffffffffffffffffffff82169050919050565b60006200060e82620005e1565b9050919050565b620006208162000601565b82525050565b60006020820190506200063d600083018462000615565b92915050565b6000819050919050565b60006200066e62000668620006628462000643565b620003b0565b620003a6565b9050919050565b62000680816200064d565b82525050565b60006020820190506200069d600083018462000675565b92915050565b612a7e80620006b36000396000f3fe608060405234801561001057600080fd5b50600436106101165760003560e01c806370a08231116100a2578063a22cb46511610071578063a22cb465146102e1578063b88d4fde146102fd578063c87b56dd14610319578063e985e9c514610349578063f2fde38b1461037957610116565b806370a082311461026b578063715018a61461029b5780638da5cb5b146102a557806395d89b41146102c357610116565b806323b872dd116100e957806323b872dd146101b55780632a5c792a146101d157806342842e0e146101ef5780635afa3a721461020b5780636352211e1461023b57610116565b806301ffc9a71461011b57806306fdde031461014b578063081812fc14610169578063095ea7b314610199575b600080fd5b61013560048036038101906101309190611d8f565b610395565b6040516101429190611dd7565b60405180910390f35b6101536103f6565b6040516101609190611e82565b60405180910390f35b610183600480360381019061017e9190611eda565b610488565b6040516101909190611f48565b60405180910390f35b6101b360048036038101906101ae9190611f8f565b6104a4565b005b6101cf60048036038101906101ca9190611fcf565b6104ba565b005b6101d96105bc565b6040516101e691906120e0565b60405180910390f35b61020960048036038101906102049190611fcf565b610614565b005b61022560048036038101906102209190612237565b610634565b60405161023291906122a2565b60405180910390f35b61025560048036038101906102509190611eda565b6108f2565b6040516102629190611f48565b60405180910390f35b610285600480360381019061028091906122bd565b610904565b60405161029291906122a2565b60405180910390f35b6102a36109be565b005b6102ad6109d2565b6040516102ba9190611f48565b60405180910390f35b6102cb6109fc565b6040516102d89190611e82565b60405180910390f35b6102fb60048036038101906102f69190612316565b610a8e565b005b610317600480360381019061031291906123f7565b610aa4565b005b610333600480360381019061032e9190611eda565b610ac1565b6040516103409190611e82565b60405180910390f35b610363600480360381019061035e919061247a565b610bd4565b6040516103709190611dd7565b60405180910390f35b610393600480360381019061038e91906122bd565b610c68565b005b6000634906490660e01b7bffffffffffffffffffffffffffffffffffffffffffffffffffffffff1916827bffffffffffffffffffffffffffffffffffffffffffffffffffffffff191614806103ef57506103ee82610cee565b5b9050919050565b606060008054610405906124e9565b80601f0160208091040260200160405190810160405280929190818152602001828054610431906124e9565b801561047e5780601f106104535761010080835404028352916020019161047e565b820191906000526020600020905b81548152906001019060200180831161046157829003601f168201915b5050505050905090565b600061049382610dd0565b5061049d82610e58565b9050919050565b6104b682826104b1610e95565b610e9d565b5050565b600073ffffffffffffffffffffffffffffffffffffffff168273ffffffffffffffffffffffffffffffffffffffff160361052c5760006040517f64a0ae920000000000000000000000000000000000000000000000000000000081526004016105239190611f48565b60405180910390fd5b6000610540838361053b610e95565b610eaf565b90508373ffffffffffffffffffffffffffffffffffffffff168173ffffffffffffffffffffffffffffffffffffffff16146105b6578382826040517f64283d7b0000000000000000000000000000000000000000000000000000000081526004016105ad9392919061251a565b60405180910390fd5b50505050565b6060600980548060200260200160405190810160405280929190818152602001828054801561060a57602002820191906000526020600020905b8154815260200190600101908083116105f6575b5050505050905090565b61062f83838360405180602001604052806000815250610aa4565b505050565b6000808211610678576040517f08c379a000000000000000000000000000000000000000000000000000000000815260040161066f9061259d565b60405180910390fd5b600860009054906101000a900473ffffffffffffffffffffffffffffffffffffffff1673ffffffffffffffffffffffffffffffffffffffff1663d09de08a6040518163ffffffff1660e01b8152600401600060405180830381600087803b1580156106e257600080fd5b505af11580156106f6573d6000803e3d6000fd5b505050506000600860009054906101000a900473ffffffffffffffffffffffffffffffffffffffff1673ffffffffffffffffffffffffffffffffffffffff16639fa6a6e36040518163ffffffff1660e01b8152600401602060405180830381865afa158015610769573d6000803e3d6000fd5b505050506040513d601f19601f8201168201806040525081019061078d91906125d2565b905061079933826110c9565b6107a381856111c2565b60405180608001604052808281526020013373ffffffffffffffffffffffffffffffffffffffff16815260200184815260200160011515815250600a60008381526020019081526020016000206000820151816000015560208201518160010160006101000a81548173ffffffffffffffffffffffffffffffffffffffff021916908373ffffffffffffffffffffffffffffffffffffffff1602179055506040820151816002015560608201518160030160006101000a81548160ff02191690831515021790555090505060098190806001815401808255809150506001900390600052602060002001600090919091909150553373ffffffffffffffffffffffffffffffffffffffff16817f23eae53a2b33c20fc1b74912840a6a2a72adc26effa68729f81e756c875df28986866040516108e09291906125ff565b60405180910390a38091505092915050565b60006108fd82610dd0565b9050919050565b60008073ffffffffffffffffffffffffffffffffffffffff168273ffffffffffffffffffffffffffffffffffffffff16036109775760006040517f89c62b6400000000000000000000000000000000000000000000000000000000815260040161096e9190611f48565b60405180910390fd5b600360008373ffffffffffffffffffffffffffffffffffffffff1673ffffffffffffffffffffffffffffffffffffffff168152602001908152602001600020549050919050565b6109c661121e565b6109d060006112a5565b565b6000600760009054906101000a900473ffffffffffffffffffffffffffffffffffffffff16905090565b606060018054610a0b906124e9565b80601f0160208091040260200160405190810160405280929190818152602001828054610a37906124e9565b8015610a845780601f10610a5957610100808354040283529160200191610a84565b820191906000526020600020905b815481529060010190602001808311610a6757829003601f168201915b5050505050905090565b610aa0610a99610e95565b838361136b565b5050565b610aaf8484846104ba565b610abb848484846114da565b50505050565b6060610acc82610dd0565b506000600660008481526020019081526020016000208054610aed906124e9565b80601f0160208091040260200160405190810160405280929190818152602001828054610b19906124e9565b8015610b665780601f10610b3b57610100808354040283529160200191610b66565b820191906000526020600020905b815481529060010190602001808311610b4957829003601f168201915b505050505090506000610b77611691565b90506000815103610b8c578192505050610bcf565b600082511115610bc1578082604051602001610ba992919061266b565b60405160208183030381529060405292505050610bcf565b610bca846116a8565b925050505b919050565b6000600560008473ffffffffffffffffffffffffffffffffffffffff1673ffffffffffffffffffffffffffffffffffffffff16815260200190815260200160002060008373ffffffffffffffffffffffffffffffffffffffff1673ffffffffffffffffffffffffffffffffffffffff16815260200190815260200160002060009054906101000a900460ff16905092915050565b610c7061121e565b600073ffffffffffffffffffffffffffffffffffffffff168173ffffffffffffffffffffffffffffffffffffffff1603610ce25760006040517f1e4fbdf7000000000000000000000000000000000000000000000000000000008152600401610cd99190611f48565b60405180910390fd5b610ceb816112a5565b50565b60007f80ac58cd000000000000000000000000000000000000000000000000000000007bffffffffffffffffffffffffffffffffffffffffffffffffffffffff1916827bffffffffffffffffffffffffffffffffffffffffffffffffffffffff19161480610db957507f5b5e139f000000000000000000000000000000000000000000000000000000007bffffffffffffffffffffffffffffffffffffffffffffffffffffffff1916827bffffffffffffffffffffffffffffffffffffffffffffffffffffffff1916145b80610dc95750610dc882611711565b5b9050919050565b600080610ddc8361177b565b9050600073ffffffffffffffffffffffffffffffffffffffff168173ffffffffffffffffffffffffffffffffffffffff1603610e4f57826040517f7e273289000000000000000000000000000000000000000000000000000000008152600401610e4691906122a2565b60405180910390fd5b80915050919050565b60006004600083815260200190815260200160002060009054906101000a900473ffffffffffffffffffffffffffffffffffffffff169050919050565b600033905090565b610eaa83838360016117b8565b505050565b600080610ebb8461177b565b9050600073ffffffffffffffffffffffffffffffffffffffff168373ffffffffffffffffffffffffffffffffffffffff1614610efd57610efc81848661197d565b5b600073ffffffffffffffffffffffffffffffffffffffff168173ffffffffffffffffffffffffffffffffffffffff1614610f8e57610f3f6000856000806117b8565b6001600360008373ffffffffffffffffffffffffffffffffffffffff1673ffffffffffffffffffffffffffffffffffffffff168152602001908152602001600020600082825403925050819055505b600073ffffffffffffffffffffffffffffffffffffffff168573ffffffffffffffffffffffffffffffffffffffff1614611011576001600360008773ffffffffffffffffffffffffffffffffffffffff1673ffffffffffffffffffffffffffffffffffffffff168152602001908152602001600020600082825401925050819055505b846002600086815260200190815260200160002060006101000a81548173ffffffffffffffffffffffffffffffffffffffff021916908373ffffffffffffffffffffffffffffffffffffffff160217905550838573ffffffffffffffffffffffffffffffffffffffff168273ffffffffffffffffffffffffffffffffffffffff167fddf252ad1be2c89b69c2b068fc378daa952ba7f163c4a11628f55a4df523b3ef60405160405180910390a4809150509392505050565b600073ffffffffffffffffffffffffffffffffffffffff168273ffffffffffffffffffffffffffffffffffffffff160361113b5760006040517f64a0ae920000000000000000000000000000000000000000000000000000000081526004016111329190611f48565b60405180910390fd5b600061114983836000610eaf565b9050600073ffffffffffffffffffffffffffffffffffffffff168173ffffffffffffffffffffffffffffffffffffffff16146111bd5760006040517f73c6ac6e0000000000000000000000000000000000000000000000000000000081526004016111b49190611f48565b60405180910390fd5b505050565b806006600084815260200190815260200160002090816111e2919061283b565b507ff8e1a15aba9398e019f0b49df1a4fde98ee17ae345cb5f6b5e2c27f5033e8ce78260405161121291906122a2565b60405180910390a15050565b611226610e95565b73ffffffffffffffffffffffffffffffffffffffff166112446109d2565b73ffffffffffffffffffffffffffffffffffffffff16146112a357611267610e95565b6040517f118cdaa700000000000000000000000000000000000000000000000000000000815260040161129a9190611f48565b60405180910390fd5b565b6000600760009054906101000a900473ffffffffffffffffffffffffffffffffffffffff16905081600760006101000a81548173ffffffffffffffffffffffffffffffffffffffff021916908373ffffffffffffffffffffffffffffffffffffffff1602179055508173ffffffffffffffffffffffffffffffffffffffff168173ffffffffffffffffffffffffffffffffffffffff167f8be0079c531659141344cd1fd0a4f28419497f9722a3daafe3b4186f6b6457e060405160405180910390a35050565b600073ffffffffffffffffffffffffffffffffffffffff168273ffffffffffffffffffffffffffffffffffffffff16036113dc57816040517f5b08ba180000000000000000000000000000000000000000000000000000000081526004016113d39190611f48565b60405180910390fd5b80600560008573ffffffffffffffffffffffffffffffffffffffff1673ffffffffffffffffffffffffffffffffffffffff16815260200190815260200160002060008473ffffffffffffffffffffffffffffffffffffffff1673ffffffffffffffffffffffffffffffffffffffff16815260200190815260200160002060006101000a81548160ff0219169083151502179055508173ffffffffffffffffffffffffffffffffffffffff168373ffffffffffffffffffffffffffffffffffffffff167f17307eab39ab6107e8899845ad3d59bd9653f200f220920489ca2b5937696c31836040516114cd9190611dd7565b60405180910390a3505050565b60008373ffffffffffffffffffffffffffffffffffffffff163b111561168b578273ffffffffffffffffffffffffffffffffffffffff1663150b7a0261151e610e95565b8685856040518563ffffffff1660e01b81526004016115409493929190612962565b6020604051808303816000875af192505050801561157c57506040513d601f19601f8201168201806040525081019061157991906129c3565b60015b611600573d80600081146115ac576040519150601f19603f3d011682016040523d82523d6000602084013e6115b1565b606091505b5060008151036115f857836040517f64a0ae920000000000000000000000000000000000000000000000000000000081526004016115ef9190611f48565b60405180910390fd5b805181602001fd5b63150b7a0260e01b7bffffffffffffffffffffffffffffffffffffffffffffffffffffffff1916817bffffffffffffffffffffffffffffffffffffffffffffffffffffffff19161461168957836040517f64a0ae920000000000000000000000000000000000000000000000000000000081526004016116809190611f48565b60405180910390fd5b505b50505050565b606060405180602001604052806000815250905090565b60606116b382610dd0565b5060006116be611691565b905060008151116116de5760405180602001604052806000815250611709565b806116e884611a41565b6040516020016116f992919061266b565b6040516020818303038152906040525b915050919050565b60007f01ffc9a7000000000000000000000000000000000000000000000000000000007bffffffffffffffffffffffffffffffffffffffffffffffffffffffff1916827bffffffffffffffffffffffffffffffffffffffffffffffffffffffff1916149050919050565b60006002600083815260200190815260200160002060009054906101000a900473ffffffffffffffffffffffffffffffffffffffff169050919050565b80806117f15750600073ffffffffffffffffffffffffffffffffffffffff168273ffffffffffffffffffffffffffffffffffffffff1614155b1561192557600061180184610dd0565b9050600073ffffffffffffffffffffffffffffffffffffffff168373ffffffffffffffffffffffffffffffffffffffff161415801561186c57508273ffffffffffffffffffffffffffffffffffffffff168173ffffffffffffffffffffffffffffffffffffffff1614155b801561187f575061187d8184610bd4565b155b156118c157826040517fa9fbf51f0000000000000000000000000000000000000000000000000000000081526004016118b89190611f48565b60405180910390fd5b811561192357838573ffffffffffffffffffffffffffffffffffffffff168273ffffffffffffffffffffffffffffffffffffffff167f8c5be1e5ebec7d5bd14f71427d1e84f3dd0314c0f7b2291e5b200ac8c7c3b92560405160405180910390a45b505b836004600085815260200190815260200160002060006101000a81548173ffffffffffffffffffffffffffffffffffffffff021916908373ffffffffffffffffffffffffffffffffffffffff16021790555050505050565b611988838383611b0f565b611a3c57600073ffffffffffffffffffffffffffffffffffffffff168373ffffffffffffffffffffffffffffffffffffffff16036119fd57806040517f7e2732890000000000000000000000000000000000000000000000000000000081526004016119f491906122a2565b60405180910390fd5b81816040517f177e802f000000000000000000000000000000000000000000000000000000008152600401611a339291906129f0565b60405180910390fd5b505050565b606060006001611a5084611bd0565b01905060008167ffffffffffffffff811115611a6f57611a6e61210c565b5b6040519080825280601f01601f191660200182016040528015611aa15781602001600182028036833780820191505090505b509050600082602001820190505b600115611b04578080600190039150507f3031323334353637383961626364656600000000000000000000000000000000600a86061a8153600a8581611af857611af7612a19565b5b04945060008503611aaf575b819350505050919050565b60008073ffffffffffffffffffffffffffffffffffffffff168373ffffffffffffffffffffffffffffffffffffffff1614158015611bc757508273ffffffffffffffffffffffffffffffffffffffff168473ffffffffffffffffffffffffffffffffffffffff161480611b885750611b878484610bd4565b5b80611bc657508273ffffffffffffffffffffffffffffffffffffffff16611bae83610e58565b73ffffffffffffffffffffffffffffffffffffffff16145b5b90509392505050565b600080600090507a184f03e93ff9f4daa797ed6e38ed64bf6a1f0100000000000000008310611c2e577a184f03e93ff9f4daa797ed6e38ed64bf6a1f0100000000000000008381611c2457611c23612a19565b5b0492506040810190505b6d04ee2d6d415b85acef81000000008310611c6b576d04ee2d6d415b85acef81000000008381611c6157611c60612a19565b5b0492506020810190505b662386f26fc100008310611c9a57662386f26fc100008381611c9057611c8f612a19565b5b0492506010810190505b6305f5e1008310611cc3576305f5e1008381611cb957611cb8612a19565b5b0492506008810190505b6127108310611ce8576127108381611cde57611cdd612a19565b5b0492506004810190505b60648310611d0b5760648381611d0157611d00612a19565b5b0492506002810190505b600a8310611d1a576001810190505b80915050919050565b6000604051905090565b600080fd5b600080fd5b60007fffffffff0000000000000000000000000000000000000000000000000000000082169050919050565b611d6c81611d37565b8114611d7757600080fd5b50565b600081359050611d8981611d63565b92915050565b600060208284031215611da557611da4611d2d565b5b6000611db384828501611d7a565b91505092915050565b60008115159050919050565b611dd181611dbc565b82525050565b6000602082019050611dec6000830184611dc8565b92915050565b600081519050919050565b600082825260208201905092915050565b60005b83811015611e2c578082015181840152602081019050611e11565b60008484015250505050565b6000601f19601f8301169050919050565b6000611e5482611df2565b611e5e8185611dfd565b9350611e6e818560208601611e0e565b611e7781611e38565b840191505092915050565b60006020820190508181036000830152611e9c8184611e49565b905092915050565b6000819050919050565b611eb781611ea4565b8114611ec257600080fd5b50565b600081359050611ed481611eae565b92915050565b600060208284031215611ef057611eef611d2d565b5b6000611efe84828501611ec5565b91505092915050565b600073ffffffffffffffffffffffffffffffffffffffff82169050919050565b6000611f3282611f07565b9050919050565b611f4281611f27565b82525050565b6000602082019050611f5d6000830184611f39565b92915050565b611f6c81611f27565b8114611f7757600080fd5b50565b600081359050611f8981611f63565b92915050565b60008060408385031215611fa657611fa5611d2d565b5b6000611fb485828601611f7a565b9250506020611fc585828601611ec5565b9150509250929050565b600080600060608486031215611fe857611fe7611d2d565b5b6000611ff686828701611f7a565b935050602061200786828701611f7a565b925050604061201886828701611ec5565b9150509250925092565b600081519050919050565b600082825260208201905092915050565b6000819050602082019050919050565b61205781611ea4565b82525050565b6000612069838361204e565b60208301905092915050565b6000602082019050919050565b600061208d82612022565b612097818561202d565b93506120a28361203e565b8060005b838110156120d35781516120ba888261205d565b97506120c583612075565b9250506001810190506120a6565b5085935050505092915050565b600060208201905081810360008301526120fa8184612082565b905092915050565b600080fd5b600080fd5b7f4e487b7100000000000000000000000000000000000000000000000000000000600052604160045260246000fd5b61214482611e38565b810181811067ffffffffffffffff821117156121635761216261210c565b5b80604052505050565b6000612176611d23565b9050612182828261213b565b919050565b600067ffffffffffffffff8211156121a2576121a161210c565b5b6121ab82611e38565b9050602081019050919050565b82818337600083830152505050565b60006121da6121d584612187565b61216c565b9050828152602081018484840111156121f6576121f5612107565b5b6122018482856121b8565b509392505050565b600082601f83011261221e5761221d612102565b5b813561222e8482602086016121c7565b91505092915050565b6000806040838503121561224e5761224d611d2d565b5b600083013567ffffffffffffffff81111561226c5761226b611d32565b5b61227885828601612209565b925050602061228985828601611ec5565b9150509250929050565b61229c81611ea4565b82525050565b60006020820190506122b76000830184612293565b92915050565b6000602082840312156122d3576122d2611d2d565b5b60006122e184828501611f7a565b91505092915050565b6122f381611dbc565b81146122fe57600080fd5b50565b600081359050612310816122ea565b92915050565b6000806040838503121561232d5761232c611d2d565b5b600061233b85828601611f7a565b925050602061234c85828601612301565b9150509250929050565b600067ffffffffffffffff8211156123715761237061210c565b5b61237a82611e38565b9050602081019050919050565b600061239a61239584612356565b61216c565b9050828152602081018484840111156123b6576123b5612107565b5b6123c18482856121b8565b509392505050565b600082601f8301126123de576123dd612102565b5b81356123ee848260208601612387565b91505092915050565b6000806000806080858703121561241157612410611d2d565b5b600061241f87828801611f7a565b945050602061243087828801611f7a565b935050604061244187828801611ec5565b925050606085013567ffffffffffffffff81111561246257612461611d32565b5b61246e878288016123c9565b91505092959194509250565b6000806040838503121561249157612490611d2d565b5b600061249f85828601611f7a565b92505060206124b085828601611f7a565b9150509250929050565b7f4e487b7100000000000000000000000000000000000000000000000000000000600052602260045260246000fd5b6000600282049050600182168061250157607f821691505b602082108103612514576125136124ba565b5b50919050565b600060608201905061252f6000830186611f39565b61253c6020830185612293565b6125496040830184611f39565b949350505050565b7f5072696365206d7573742062652067726561746572207468616e207a65726f00600082015250565b6000612587601f83611dfd565b915061259282612551565b602082019050919050565b600060208201905081810360008301526125b68161257a565b9050919050565b6000815190506125cc81611eae565b92915050565b6000602082840312156125e8576125e7611d2d565b5b60006125f6848285016125bd565b91505092915050565b600060408201905081810360008301526126198185611e49565b90506126286020830184612293565b9392505050565b600081905092915050565b600061264582611df2565b61264f818561262f565b935061265f818560208601611e0e565b80840191505092915050565b6000612677828561263a565b9150612683828461263a565b91508190509392505050565b60008190508160005260206000209050919050565b60006020601f8301049050919050565b600082821b905092915050565b6000600883026126f17fffffffffffffffffffffffffffffffffffffffffffffffffffffffffffffffff826126b4565b6126fb86836126b4565b95508019841693508086168417925050509392505050565b6000819050919050565b600061273861273361272e84611ea4565b612713565b611ea4565b9050919050565b6000819050919050565b6127528361271d565b61276661275e8261273f565b8484546126c1565b825550505050565b600090565b61277b61276e565b612786818484612749565b505050565b5b818110156127aa5761279f600082612773565b60018101905061278c565b5050565b601f8211156127ef576127c08161268f565b6127c9846126a4565b810160208510156127d8578190505b6127ec6127e4856126a4565b83018261278b565b50505b505050565b600082821c905092915050565b6000612812600019846008026127f4565b1980831691505092915050565b600061282b8383612801565b9150826002028217905092915050565b61284482611df2565b67ffffffffffffffff81111561285d5761285c61210c565b5b61286782546124e9565b6128728282856127ae565b600060209050601f8311600181146128a55760008415612893578287015190505b61289d858261281f565b865550612905565b601f1984166128b38661268f565b60005b828110156128db578489015182556001820191506020850194506020810190506128b6565b868310156128f857848901516128f4601f891682612801565b8355505b6001600288020188555050505b505050505050565b600081519050919050565b600082825260208201905092915050565b60006129348261290d565b61293e8185612918565b935061294e818560208601611e0e565b61295781611e38565b840191505092915050565b60006080820190506129776000830187611f39565b6129846020830186611f39565b6129916040830185612293565b81810360608301526129a38184612929565b905095945050505050565b6000815190506129bd81611d63565b92915050565b6000602082840312156129d9576129d8611d2d565b5b60006129e7848285016129ae565b91505092915050565b6000604082019050612a056000830185611f39565b612a126020830184612293565b9392505050565b7f4e487b7100000000000000000000000000000000000000000000000000000000600052601260045260246000fdfea26469706673582212209f2d94a9b15fa7bc9498aefb54f09e9e305663a60cc7f1fc385e27bcb02e663164736f6c63430008170033608060405234801561001057600080fd5b506040516103313803806103318339818101604052810190610032919061007a565b80600081905550506100a7565b600080fd5b6000819050919050565b61005781610044565b811461006257600080fd5b50565b6000815190506100748161004e565b92915050565b6000602082840312156100905761008f61003f565b5b600061009e84828501610065565b91505092915050565b61027b806100b66000396000f3fe608060405234801561001057600080fd5b50600436106100575760003560e01c80632baeceb71461005c5780633fb5c1cb146100665780638381f58a146100825780639fa6a6e3146100a0578063d09de08a146100be575b600080fd5b6100646100c8565b005b610080600480360381019061007b919061014e565b6100e1565b005b61008a6100eb565b604051610097919061018a565b60405180910390f35b6100a86100f1565b6040516100b5919061018a565b60405180910390f35b6100c66100fa565b005b6000808154809291906100da906101d4565b9190505550565b8060008190555050565b60005481565b60008054905090565b60008081548092919061010c906101fd565b9190505550565b600080fd5b6000819050919050565b61012b81610118565b811461013657600080fd5b50565b60008135905061014881610122565b92915050565b60006020828403121561016457610163610113565b5b600061017284828501610139565b91505092915050565b61018481610118565b82525050565b600060208201905061019f600083018461017b565b92915050565b7f4e487b7100000000000000000000000000000000000000000000000000000000600052601160045260246000fd5b60006101df82610118565b9150600082036101f2576101f16101a5565b5b600182039050919050565b600061020882610118565b91507fffffffffffffffffffffffffffffffffffffffffffffffffffffffffffffffff820361023a576102396101a5565b5b60018201905091905056fea26469706673582212201b0433e001cc9bb9b6d6815e77bec58f382f723e560052156ae960b18336e7f864736f6c63430008170033",
    "linkReferences": {},
    "deployedLinkReferences": {}
}